:100000000C9463000C948B000C948B000C94F10204
:100010000C94F1020C94F1020C948B000C9491035B
:100020000C948B000C948B000C948B000C948B0024
:100030000C948B000C948B000C948B000C948B0014
:100040000C94A7020C948B000C9469030C948B0005
:100050000C948B000C948B000C948B000C948B00F4
:100060000C948B000C948B0000000008000201002F
:100070000003040700000000000000000000000072
:1000800023002600290000000000240027002A0089
:1000900000000000250028002B00040404040404D0
:1000A0000404020202020202030303030303010227
:1000B00004081020408001020408102001020408F6
:1000C00010208304EE0911241FBECFEFD8E0DEBF5D
:1000D000CDBF11E0A0E0B1E0E6E6F4E102C005909A
:1000E0000D92A033B107D9F723E0A0E3B1E001C03E
:1000F0001D92AE31B207E1F710E0C2E6D0E004C0D5
:100100002197FE010E94200AC136D107C9F70E943B
:1001100090050C94260A0C940000E4E7F0E024918A
:10012000EAEBF0E09491E6EAF0E0E491EE23C9F026
:10013000222339F0233001F1A8F4213019F12230C3
:1001400029F1F0E0EE0FFF1FE057FF4FA591B491AA
:100150002FB7F894EC91811126C090959E239C9323
:100160002FBF08952730A9F02830C9F0243049F76F
:10017000209180002F7D03C0209180002F77209355
:100180008000DFCF24B52F7724BDDBCF24B52F7DB2
:10019000FBCF2091B0002F772093B000D2CF2091D9
:1001A000B0002F7DF9CF9E2BDACFAF92BF92CF92C6
:1001B000DF92EF92FF920F931F93CF93DF936C0127
:1001C0007B018B01040F151FEB015E01AE18BF0808
:1001D000C017D10759F06991D601ED91FC910190BA
:1001E000F081E02DC6010995892B79F7C501DF91D2
:1001F000CF911F910F91FF90EF90DF90CF90BF9024
:10020000AF90089520913F0230914002281739079E
:1002100071F490913D0280913E02981741F0E09177
:100220003D02F0E0EA5CFE4F808190E008958FEFA0
:100230009FEF08950895EF92FF920F931F93CF932E
:10024000DF93DC015C96ED90FC905D97E114F10486
:1002500079F481E090E013969C938E93129790E04E
:1002600080E0DF91CF911F910F91FF90EF90089563
:100270005196ED91FC91529750968C915097982FF2
:1002800090950FB75E962C915E97122F127021FDFC
:100290006095F8942081112319F1282B2083E70120
:1002A0002197F1F728E0462F50E0308160FF1AC017
:1002B000382B3083E7012197F1F7BA0175956795DF
:1002C000215089F7112381F08081892380830FBF1A
:1002D0005C968D919C910197F1F781E090E0C1CF00
:1002E0002923DCCF3923E5CF9081892BEFCF2091D3
:1002F0003F02309140022817390771F480913E0285
:1003000020913D0290E0805C9F4F821B910960E448
:1003100070E00E94F809089590E080E0089520912F
:100320003F023091400228173907B9F490913D02FD
:1003300080913E02981789F0E0913D02F0E0EA5C7E
:10034000FE4F808120913D0230E02F5F3F4F2F73A1
:10035000332720933D0290E008958FEF9FEF08959B
:10036000E0913F02F0914002E817F90769F4A38990
:10037000B4899C918589809589238C931092400241
:1003800010923F0281E0089580E0089590E080E0BF
:1003900008959091F901983768F4E091F801E90F18
:1003A000E83708F0E857F0E0E058FE4F80839F5FA1
:1003B0009093F9010895CF93DF93EC0189918823FD
:1003C00019F00E94C901FACFDF91CF9108958A30C8
:1003D00018F4805D0C94C901895AFCCFDC01F894B3
:1003E000ED91FC911197908114968C9180958923C1
:1003F000808378940895CF92DF92EF92FF92CF930B
:10040000DF93FC018081823031F1833009F446C0F2
:100410008130D1F482858823B9F082E08083F8941A
:10042000A181B2818C919581892B8C937894809154
:10043000980290919902A0919A02B0919B028683B2
:100440009783A087B1871286DF91CF91FF90EF90BD
:10045000DF90CF900895C0909802D0909902E090DC
:100460009A02F0909B0286819781A085B185A701B1
:100470009601281B390B4A0B5B0BDA01C901459722
:10048000A105B10508F3EF0123E02193CF010E94FC
:10049000EE01CE82DF82E886F986D6CF809198027F
:1004A00090919902A0919A02B0919B024681578146
:1004B00060857185841B950BA60BB70B4F97A10523
:1004C000B10510F281E08193CF01DF91CF91FF90D0
:1004D000EF90DF90CF900C94EE0181E08093350196
:1004E000109230010895409184005091850010923F
:1004F000B2004A9B0BC02091840030918500241BE0
:10050000350B2817390798F380E0089581E00895A6
:10051000809169028F5F883018F480936902089592
:10052000109269020895982F80ED890F8A3070F03B
:100530008FEB890F863018F489EC890F08958FE9C5
:10054000890F863010F489EAF8CF80E008951F9271
:100550000F920FB60F9211242F933F938F939F9377
:10056000AF93BF938091890290918A02A0918B02F0
:10057000B0918C023091880223E0230F2D3758F57B
:100580000196A11DB11D209388028093890290934A
:100590008A02A0938B02B0938C0280918402909186
:1005A0008502A0918602B09187020196A11DB11D1E
:1005B0008093840290938502A0938602B093870271
:1005C000BF91AF919F918F913F912F910F900FBE4F
:1005D0000F901F90189526E8230F0296A11DB11DBC
:1005E000D2CF1F920F920FB60F9211242F933F93E9
:1005F0004F935F936F937F938F939F93AF93BF932B
:10060000EF93FF93E0913F02F0914002309749F061
:10061000A685B7858585968D91FF14C09C91892309
:10062000A1F4FF91EF91BF91AF919F918F917F9135
:100630006F915F914F913F912F910F900FBE0F904F
:100640001F9018959C91892361F7A389B4899C9187
:100650008589809589238C93868997890197F1F7FD
:10066000608D718DA685B785558538E020E0CB017A
:100670000197F1F7822F90E095958795282F4C915F
:10068000452309F02068315091F7868D81FD209532
:1006900080913E0290E001968F73992730913D0240
:1006A000381799F0A0913E02B0E0AA5CBE4F2C939F
:1006B00080933E02828D938D0197F1F7A389B489CF
:1006C0008C919589892B8C93ACCF868D8160868F98
:1006D000F1CF1F920F920FB60F9211242F938F9389
:1006E0009F93EF93FF9380913C0290E001968F736C
:1006F000992720913B02281751F0E0913C029091FC
:10070000C600F0E0E550FE4F908380933C02FF91DD
:10071000EF919F918F912F910F900FBE0F901F908F
:1007200018951F920F920FB60F9211242F933F939B
:100730004F935F936F937F938F939F93AF93BF93E9
:10074000CF93EF93FF9380913501813031F0823068
:1007500009F44FC00E946D0204C04A9B19C0109258
:100760003001809167028F5F80936702FF91EF9164
:10077000CF91BF91AF919F918F917F916F915F9139
:100780004F913F912F910F900FBE0F901F90189592
:10079000809130018F5F809330018A3010F3209177
:1007A0008400309185001092B2004A9909C080916E
:1007B000840090918500821B930B8F3F910598F3E5
:1007C00082E0809335011092330110923401E09160
:1007D00068028BE0E89FF0011124EA53FD4F10827C
:1007E0008FEF90E00E94730280917A018093B200B3
:1007F000B8CF89B1847090913401911117C08823CA
:1008000069F080913301811102C080E101C084E070
:100810009091FA01892B8093FA019CCF81E080931B
:10082000340110923201809331019BCF993080F4D2
:1008300020913101882329F080913201822B80930D
:100840003201220F209331019F5F9093340189CFB1
:10085000C0913301CF5FC0933301109234018111F5
:1008600004C088E0C111D4CFD0CF90913201C13003
:1008700031F4953599F08091FA018061CCCFE09107
:1008800068028BE0E89FF0011124EA53FD4F80815C
:1008900021E0280F2083E80FF11D918380917D01D5
:1008A00090E00E94730281111EC0C11104C08091AA
:1008B000FA018160B0CF809168028F5F883080F448
:1008C000809368029091690280916802981342CFE8
:1008D0008091FA0180628093FA010E9488023ACFE7
:1008E00010926802EFCFE09168028BE0E89FF00180
:1008F0001124EA53FD4F80818A3008F475CF80912E
:10090000FA01826088CF0F931F93CF93DF938BE21E
:1009100090E090938F0280938E0289E290E0909312
:1009200091028093900280E880939202579A8EE819
:1009300092E00E94EE018091980290919902A0911C
:100940009A02B0919B028093930290939402A09399
:100950009502B093960210929702C1E0C0938D0267
:100960008EE892E00E94EE0185E290E090939E0274
:1009700080939D0283E290E09093A00280939F0277
:1009800082E08093A102219A8DE992E00E94EE011B
:100990008091980290919902A0919A02B0919B0245
:1009A0008093A2029093A302A093A402B093A50205
:1009B0001092A602C0939C028DE992E00E94EE0183
:1009C0001092AA021092A90288EE93E0A0E0B0E093
:1009D0008093AB029093AC02A093AD02B093AE02B1
:1009E0008CE091E09093A8028093A7021092BE023F
:1009F0001092BD021092C0021092BF021092C20269
:100A00001092C1021092C4021092C3028091C502DA
:100A10008E7F8D7F8093C502869581708C270E9482
:100A20008D000AEB10E0F8012491C6EAD0E0FE0147
:100A30008491882399F090E0880F991FFC01EA5770
:100A4000FF4FA591B491FC01E057FF4F8591949120
:100A50008FB7F8949C91292B2C938FBFF801849128
:100A60008093B702FE018491E82FF0E0EE0FFF1FA4
:100A7000E057FF4F859194919093B9028093B8020B
:100A8000F8012491FE0184918823C9F090E0880F39
:100A9000991FFC01EA57FF4FA591B491FC01E05763
:100AA000FF4F459154913FB7F8949C91822F8095C8
:100AB00098239C93FA019081892380833FBF809182
:100AC000C50281FD03C081E00E948D008CE080930F
:100AD000B302F80104910093B402FE01C491EC2F1B
:100AE000F0E0EE0FFF1FE458FF4F85919491909333
:100AF000B6028093B5021092C6021092D1021092F3
:100B0000DC021092E7021092F2021092FD021092A3
:100B1000080310921303DF91CF911F910F91089555
:100B2000CF93DF93CDB7DEB72B970FB6F894DEBF28
:100B30000FBECDBF789484B5826084BD84B58160DA
:100B400084BD85B5826085BD85B5816085BD809198
:100B50006E00816080936E00109281008091810010
:100B60008260809381008091810081608093810008
:100B7000809180008160809380008091B1008460CA
:100B80008093B1008091B00081608093B00080912B
:100B90007A00846080937A0080917A0082608093EA
:100BA0007A0080917A00816080937A0080917A0047
:100BB000806880937A001092C1001092F801109220
:100BC000F90110923C0210923B021092660281E001
:100BD000809397021092C50080E18093C40082E068
:100BE0008093C00088E98093C10086E08093C200B2
:100BF00078941092800093E0909381001092850089
:100C000010928400109289001092880010928B003C
:100C100010928A0010926F0016BA20E03BE43093E5
:100C20007701209376011092780198E690937901EC
:100C300096E390937A019DE090937B0180937C01F1
:100C40008EE480937D01569A5E9A209A289A549A4F
:100C50005C9A10926802109269020E946D0283E30E
:100C60008093B00080917801882309F444C084E027
:100C700088608093B1001092B200809179019FEF5B
:100C8000980F9093B30082508093B40082E08093D9
:100C9000700087BB1092FA015E9A5C9A7894F5E531
:100CA0004F2E512C77247394F89480918400909166
:100CB0008500789420917E0130917F01821B930BF7
:100CC000C0909802D0909902E0909A02F0909B0216
:100CD000F901EC53F64FB701A601465F5F4F6F4F26
:100CE0007F4F843C09E0900740F0845C99406A01A2
:100CF0007B019F01EDCF82E0BBCFB701A6014F5F23
:100D00005F4F6F4F7F4FF901E650FF4F8A3F9105CC
:100D100030F08A5F91099F016A017B01EECF309329
:100D20007F0120937E01C0929802D0929902E092B6
:100D30009A02F0929B0280916B02882309F4EEC024
:100D4000289A8DE892E00E94FB019091F901992385
:100D5000B1F08091C00085FF12C08091F801E82FAA
:100D6000F0E0E058FE4F20818F5F883708F0D8C050
:100D70008093F80191509093F9012093C6008CE97B
:100D800092E00E94FB0180917C02811113C080914E
:100D9000980290919902A0919A02B0919B0280933F
:100DA000780290937902A0937A02B0937B0281E05B
:100DB00080937C0280917002811113C0809198020F
:100DC00090919902A0919A02B0919B0280936C023B
:100DD00090936D02A0936E02B0936F0281E08093B6
:100DE0007002F8948091FA011092FA0178948823A5
:100DF000B9F090916B02992399F091E09093A6023B
:100E0000409198025091990260919A0270919B02D0
:100E1000409378025093790260937A0270937B0238
:100E200090916A02892B80936A02882339F180911C
:100E3000980290919902A0919A02B0919B024091E0
:100E40006C0250916D0260916E0270916F028C0184
:100E50009D01041B150B260B370BB901A801493E58
:100E600053406105710550F080936C0290936D02C0
:100E7000A0936E02B0936F0210926A0280913C02BE
:100E800020913B0290E0805C9F4F821B910960E4BF
:100E900070E00E94F809892B09F4F6C1E0E4CE2E37
:100EA000D12C80913C0220913B0290E0805C9F4FCE
:100EB000821B9109B6010E94F809892B09F4E4C14B
:100EC00090913C0280913B02981759F380913B022C
:100ED000813410F010923B02E0913B02F0E0E550CB
:100EE000FE4F208180913B0290E001968F739927FD
:100EF00080933B022A30B9F02D30A9F0222389F2E9
:100F0000E0916602EA3108F054C081E08E0F8093D0
:100F10006602F0E0E65BFD4F2083C3CF289811CF37
:100F20001092F80127CF90916602992309F4B9CF66
:100F3000E92FF0E0E65BFD4F108280914A02863592
:100F4000D9F1E8F48E3489F138F4833409F48EC190
:100F500087E00E94C9012DC08F3409F48AC183350E
:100F6000B9F780916B028111F3CF80914B028033EE
:100F700078F3873308F46BC1883351F768C183373E
:100F800009F47DC158F48A3519F7923009F7809138
:100F90004B028053823008F45AC1DACF843779F09B
:100FA0008637B1F681E291E002C08AE191E00E94C9
:100FB000DB011092660275CF88E291E0F8CF809154
:100FC0006B028823B1F30BE412E07AE4E72E72E0BF
:100FD000F72E612CF80181918F010E949302629497
:100FE00060EF6622680EF2E00E341F0799F76092F8
:100FF000490280914E020E9493029FEF980F983011
:10100000C0F651E4852E52E0952E082F10E022E024
:10101000E20EF11CC401815492408017910784F4C0
:10102000F70184810E949302382EF70183810E9488
:1010300093028295807F380EF40131924F01E7CF01
:10104000262D30E0A90155954795B901E4E0759545
:101050006795EA95E1F7F901A3E0F595E795AA957B
:10106000E1F7862F84278E27F901B5E0F595E795FE
:10107000BA95E1F78E2781708095F0E88F9FC001C7
:1010800011243595279535952795422746256427C0
:1010900060FBAA24A0F8B12C950146E0220F331F73
:1010A0004A95E1F7462D4F73642E622A682A862DF1
:1010B00090E0E1E4F2E02191820F911D8F3F9105D4
:1010C00019F010F08F5F91099F01215432402017D1
:1010D00031078CF3982E9094F894249A2C988BE8EE
:1010E0009AE00197F1F72C9A8BEC90E00197F1F7D9
:1010F0001092C2021092C1021092C0021092BF025E
:101100001092BE021092BD028DEC90E09093C4024A
:101110008093C3028091B302863108F047C0509299
:10112000BE024092BD02EBECF0E0F093C002E0930F
:10113000BF0220E930E03093C2022093C1029091B7
:10114000680024E0883050F021E08E3008F420E080
:10115000372D01C0330F2A95EAF7232F922B909356
:1011600068002DE630E0883050F02BE630E08E301D
:1011700030F02CE630E0863110F030E020E03093A3
:10118000BB022093BA02282F30E0883008F061C0FB
:10119000472D01C0440F8A95EAF7842F8093BC0243
:1011A0008091C3029091C4020197F1F78091C1022E
:1011B0009091C202892B21F180913F0290914002CF
:1011C000A2E0873A9A07E1F0009711F00E94B0017F
:1011D0008091C5028E7F8093C50210923E021092CC
:1011E0003D0287EA92E09093400280933F02E091B3
:1011F000BA02F091BB0280819091BC02892B80835E
:1012000065E587EA92E00E941B01662D87EA92E07D
:101210000E941B0131E4E32E32E0F32EF7016191CD
:101220007F0187EA92E00E941B01C701815492402E
:10123000801791079CF3692D87EA92E00E941B01B9
:1012400087EA92E00E94B0011092B20078948DE09B
:1012500080CE8E3040F428503109872D01C0880F90
:101260002A95EAF79BCF2E503109F7CF10926B02E7
:10127000EECF913009F09DCE90936B02E8CF809134
:101280006B02882321F364CE80916B02882309F4DA
:1012900051C0198290916702809167029817E1F31B
:1012A000F894E091690280916802E81709F441C05E
:1012B0008BE08E9FF0011124EA53FD4FDE01119661
:1012C00001900D928A95E1F70E9488027894298115
:1012D0002130C1F53A81432F440F440F842F80956C
:1012E000942F990F8927990F89274927990F492703
:1012F000990F8927807894279074892B932F9F7357
:10130000892B381317C0C22ED12C223060F1E1E0B6
:10131000F0E0EC0FFD1FEC0DFD1D40812150FE01A2
:10132000329690E080E0215090F03191830F911D32
:10133000FACF789480E090E0892B09F4B5CC0E9434
:101340000000B0CC8DEF820F883020F2F3CF292F30
:1013500033272115310521F0820F932F911DF7CFEF
:1013600080954813E7CF84E70E94C9018E010E5F84
:101370001F4FF12CE12C4601F3E08F1A91089401E4
:1013800020503F4F1901EC14FD0424F531E0309357
:10139000970241E0E416F10459F480E20E94C90189
:1013A00088E088169104A0F4F10180810E94C901AF
:1013B000F80161908F01862D82958F700E94E70160
:1013C000862D8F700E94E701FFEFEF1AFF0ADBCF37
:1013D00080E3ECCF8DE00E94C901ACCF8CE091E0BE
:1013E0009093A8028093A70287EA92E00C94B00140
:1013F00097FB072E16F4009407D077FD09D00E94C2
:101400000C0A07FC05D03EF4909581959F4F0895F6
:10141000709561957F4F0895AA1BBB1B51E107C0D2
:10142000AA1FBB1FA617B70710F0A61BB70B881F74
:10143000991F5A95A9F780959095BC01CD01089503
:10144000EE0FFF1F0590F491E02D099410E0C2E625
:10145000D0E004C0FE010E94200A2196C336D107C5
:06146000C9F7F894FFCF6C
:101466003132333435363738000000001B01D500E1
:10147600C6011A0177018F0102014E303030310D5D
:101486000076303130370D0056313031300D0000E6
:00000001FF
